:100000000C944C000C946B000C946B000C946B00E3
:100010000C946B000C946B000C946B000C946B00B4
:100020000C946B000C946B000C946B000C946B00A4
:100030000C946B000C946B000C946B000C946B0094
:100040000C946B000C946B000C946B000C946B0084
:100050000C946B000C946B000C946B000C946B0074
:100060000C946B000C946B000C946B000C946B0064
:100070000C946B000C946B000C946B000C946B0054
:100080000C946B000C946B000C946B000C946B0044
:100090000C946B000C946B0011241FBECFEFD0E2C8
:1000A000DEBFCDBF11E0A0E0B1E0E4EAF4E100E0A2
:1000B0000BBF02C007900D92A032B107D9F711E033
:1000C000A0E2B1E001C01D92A432B107E1F70E94A5
:1000D00076010C94500A0C940000CF93DF938DEFBF
:1000E0000E94590280E197E229E130E0F90131975D
:1000F000F1F70197D9F784E090E00E9429088EEF8C
:100100006DE04DEF2CE00E941806EC0188810E9402
:10011000590280E197E229E130E0F9013197F1F7E6
:100120000197D9F78A810E94590280E197E229E17B
:1001300030E0F9013197F1F70197D9F78DEF0E947F
:10014000590280E197E229E130E0F9013197F1F7B6
:100150000197D9F7DF91CF9108952F923F924F9257
:100160005F926F927F928F929F92AF92BF92CF9247
:10017000DF92EF92FF920F931F93CF93DF938CE068
:100180006FEF0E9498028FEF0E94590280E197E280
:1001900029E130E0F9013197F1F70197D9F784E0CF
:1001A00090E00E9429081C0184E090E00E94290848
:1001B0002C0184E090E00E9429083C0188249924C5
:1001C0000E94A501182F86E090E00E942908812F47
:1001D00090E00E948107FC010081D201A80DB91DA9
:1001E000B180AA24C501800F911D8D939C93D101EC
:1001F000A80DB91DD380CC2482819601280F311D12
:100200002D933C93E480D301A80DB91DD581C0E0A6
:10021000CE018E0D911D8D939C938FEF6CE04EEF70
:100220002DE010E0FF240E94C00582E090E0880EDF
:10023000991E94E08916910419F68FEF0E945902D5
:10024000DF91CF911F910F91FF90EF90DF90CF90B2
:10025000BF90AF909F908F907F906F905F904F90E6
:100260003F902F900895CF92DF92EF92FF920F93DD
:100270001F93CF93DF938EE06EEF0E949802C0E051
:10028000D0E089E1C82ED12C84E090E00E942908BA
:100290008FEF6BE04EEF2EE00E941806FC01C1309C
:1002A000D105A1F400811181E280F3808EEF0E94DC
:1002B000590280E197E2F6013197F1F70197D9F7FA
:1002C0008EEF6CE04DEF2DE00E94C0052196C2300C
:1002D000D105D1F68EEF0E945902DF91CF911F9187
:1002E0000F91FF90EF90DF90CF9008958FEF81B93D
:1002F00014B88DB91AB887B980E197E229E130E0E6
:10030000F9013197F1F70197D9F70E94330180E0A5
:1003100090E008958CB1807393B1803211F482E043
:100320000895803111F483E00895892F807E80360E
:1003300011F481E00895803A11F484E00895803C3E
:1003400011F485E0089580E008950F931F93DF93E3
:10035000CF93CDB7DEB760970FB6F894DEBF0FBE70
:10036000CDBF20E060E0AE014F5F5F4F08EA11E6CD
:1003700001C0632F8CB1807393B1803211F432E0ED
:1003800013C0803111F433E00FC0892F807E803696
:1003900011F431E009C0803A11F434E005C0803C2A
:1003A00011F435E001C030E0361719F3343061F450
:1003B0002295207FDA01E0E0F1E080E101900D92EA
:1003C0008150E1F7998115C0333011F5222311F4E2
:1003D0002FEF01C02150DA01E0E0F1E080E101906F
:1003E0000D928150E1F7822F8F70FA01E80FF11D15
:1003F0009081822F82958F70FA01E80FF11D808124
:100400009095809582B991BBC8010197F1F7B1CF62
:10041000323081F422952F70DA01E0E0F1E080E1E2
:1004200001900D928150E1F7FA01E20FF11D9081E8
:100430008981E6CF313051F42F5FDA01E0E0F1E05D
:1004400080E101900D928150E1F7CDCF353009F078
:1004500090CFDE011196E0E0F1E080E101900D9295
:100460008150E1F7822F8F70FE013196DF01A80FD6
:10047000B11D9C91822F82958F70E80FF11D8081B4
:100480009095809582B991BB88EA91E6FC013197FD
:10049000F1F712B811BA0197F1F7822F60960FB6F3
:1004A000F894DEBF0FBECDBFCF91DF911F910F91AA
:1004B0000895DF93CF93CDB7DEB760970FB6F8946A
:1004C000DEBF0FBECDBF282FDE011196E0E0F1E0C8
:1004D00080E101900D928150E1F7822F8F70FE0133
:1004E0003196DF01A80FB11D9C9122952F70E20F6C
:1004F000F11D80819095809582B991BB60960FB671
:10050000F894DEBF0FBECDBFCF91DF91089512B832
:1005100011BA0895823011F48FEF0895813011F4EB
:100520008EEF0895882311F48DEF089580E00895EB
:100530008C3091F08D3028F48A3051F08B3099F462
:1005400009C08E3069F08E3048F08F3061F40AC0F7
:1005500062B9089565B9089568B908956BB90895A9
:100560006EB9089561BB08958C3099F08D3028F4F0
:100570008A3059F08B3039F40AC08E3071F08E30E9
:1005800050F08F3061F080E0089580B1089583B11C
:10059000089586B1089589B108958CB108958FB1F9
:1005A0000895CF92DF92EF92FF920F931F93DF9304
:1005B000CF93CDB7DEB760970FB6F894DEBF0FBE0E
:1005C000CDBFE82EF62E142F862F0E94B402282FBE
:1005D000113009F04DC021C0C6010197F1F78F2DF0
:1005E0000E94B402282FD801E0E0F1E080E1019000
:1005F0000D928150E1F7822F8F70F801E80FF11D05
:100600009081822F82958F70F801E80FF11D808113
:100610009095809582B991BB07C094ECC92E99E062
:10062000D92E8E010F5F1F4F2E15B1F22AC0C601C1
:100630000197F1F78F2D0E94B402282FD801E0E036
:10064000F1E080E101900D928150E1F7822F8F70EF
:10065000F801E80FF11D9081822F82958F70F801CB
:10066000E80FF11D80819095809582B991BB07C0FC
:1006700084ECC82E89E0D82E8E010F5F1F4F2E15F7
:10068000B1F6DE011196E0E0F1E080E101900D921B
:100690008150E1F7822F8F70FE013196DF01A80FA4
:1006A000B11D9C91822F82958F70E80FF11D808182
:1006B0009095809582B991BB822F60960FB6F89481
:1006C000DEBF0FBECDBFCF91DF911F910F91FF9085
:1006D000EF90DF90CF900895CF92DF92EF92FF924C
:1006E0000F931F93DF93CF93CDB7DEB760970FB60D
:1006F000F894DEBF0FBECDBFF82EE62E862F0E94E7
:10070000B402282F8E010F5F1F4F34ECC32E39E047
:10071000D32E20C0C6010197F1F78E2D0E94B4029E
:10072000282FD801E0E0F1E080E101900D928150A6
:10073000E1F7822F8F70F801E80FF11D9081822F71
:1007400082958F70F801E80FF11D8081909580955A
:1007500082B991BB2F15F1F6D801E0E0F1E080E11C
:1007600001900D928150E1F78F2D8F70FE0131962F
:10077000DF01A80FB11D9C918F2D82958F70E80F1E
:10078000F11D80819095809582B991BB8F2D6096E7
:100790000FB6F894DEBF0FBECDBFCF91DF911F9192
:1007A0000F91FF90EF90DF90CF900895CF92DF925E
:1007B000EF92FF920F931F93DF93CF93CDB7DEB7E6
:1007C00060970FB6F894DEBF0FBECDBFE82EF62EB1
:1007D000862F0E94B402282F8E010F5F1F4F44EC1A
:1007E000C42E49E0D42E20C0C6010197F1F78F2D09
:1007F0000E94B402282FD801E0E0F1E080E10190EE
:100800000D928150E1F7822F8F70F801E80FF11DF2
:100810009081822F82958F70F801E80FF11D808101
:100820009095809582B991BB2E15F1F2D801E0E048
:10083000F1E080E101900D928150E1F7822F8F70FD
:10084000FE013196DF01A80FB11D9C91822F829588
:100850008F70E80FF11D80819095809582B991BBD2
:10086000822F60960FB6F894DEBF0FBECDBFCF913A
:10087000DF911F910F91FF90EF90DF90CF9008953F
:10088000DF92EF92FF920F931F93DF93CF93CDB739
:10089000DEB760970FB6F894DEBF0FBECDBF182F3E
:1008A000062FD42EF22E0E946C0380E197E229E1FC
:1008B00030E0F9013197F1F70197D9F78F2D60E01A
:1008C0000E949802812F602F0E94D603E82E80E1BB
:1008D00097E229E130E0F9013197F1F70197D9F773
:1008E0008F2D6D2D0E949802812F602F0E946C0326
:1008F00080E197E229E130E0F9013197F1F70197C2
:10090000D9F78F2D60E00E949802812F602F0E94FE
:10091000D6031E2D1295107F8F70180FDE011196D1
:10092000E0E0F1E080E101900D928150E1F7812F4C
:100930008F70FE013196DF01A80FB11D9C91812FB0
:1009400082958F70E80FF11D80819095809582B916
:1009500091BB80E197E229E130E0F9013197F1F7AD
:100960000197D9F78F2D6D2D0E949802812F6096E7
:100970000FB6F894DEBF0FBECDBFCF91DF911F91B0
:100980000F91FF90EF90DF9008954F925F926F92DA
:100990007F928F929F92AF92BF92CF92DF92EF920F
:1009A000FF920F931F93DF93CF93CDB7DEB760977E
:1009B0000FB6F894DEBF0FBECDBF482E662EA42E14
:1009C000722E902EDE011196E0E0F1E080E10190C0
:1009D0000D928150E1F78A2D8F70E82EFF248E0151
:1009E0000F5F1F4FF801EE0DFF1D90818A2D82953C
:1009F0008F70C82EDD24F801EC0DFD1D80819095CF
:100A0000809582B991BB872D6A2D0E949802D801EA
:100A1000E0E0F1E080E101900D928150E1F7FE010C
:100A20003196DF01AE0DBF1D9C91EC0DFD1D808147
:100A30009095809582B991BB80E0662D0E946C03F1
:100A400080E197E229E130E0F9013197F1F7019770
:100A5000D9F7B92CB2946FE0B622872D6B2D0E9486
:100A60009802842D662D0E946C035FE0552E59205C
:100A7000DE011196E0E0F1E080E101900D928150FD
:100A8000E1F7052D10E0FE013196DF01A00FB11F47
:100A90009C918B2C9924E80DF91D8081909580956F
:100AA00082B991BB80E197E229E130E0F901319709
:100AB000F1F70197D9F7872D6A2D0E94980280E0FF
:100AC000662D0E946C03DE011196E0E0F1E080E10A
:100AD00001900D928150E1F7FE013196EE0EFF1E5E
:100AE000D7019C91EC0DFD1D80819095809582B978
:100AF00091BB80E197E229E130E0F9013197F1F70C
:100B00000197D9F7872D652D0E949802842D662DB7
:100B10000E946C03DE011196E0E0F1E080E10190BB
:100B20000D928150E1F7FE0131960E0F1F1FD80183
:100B30009C91E80DF91D80819095809582B991BBBB
:100B400080E197E229E130E0F9013197F1F701976F
:100B5000D9F760960FB6F894DEBF0FBECDBFCF9128
:100B6000DF911F910F91FF90EF90DF90CF90BF909A
:100B7000AF909F908F907F906F905F904F9008956F
:100B8000AF92BF92CF92DF92EF92FF920F931F939B
:100B9000DF93CF93CDB7DEB760970FB6F894DEBF83
:100BA0000FBECDBFC82EB62EA42ED22E0E94C504D5
:100BB0008C2D6B2D4A2D2D2D87010E94C5048D2D66
:100BC0006A2D0E949802DE011196E0E0F1E080E1DA
:100BD00001900D928150E1F78A2D8F70FE013196C0
:100BE000DF01A80FB11D9C91A2947FE0A722EA0D1E
:100BF000F11D80819095809582B991BB80E197E24B
:100C000029E130E0F9013197F1F70197D9F76096C2
:100C10000FB6F894DEBF0FBECDBFCF91DF911F910D
:100C20000F91FF90EF90DF90CF90BF90AF9008951D
:100C3000BF92CF92DF92EF92FF920F931F93F82E05
:100C4000E62ED42EC22E84E090E00E942908B92E10
:100C5000082F192F8F2D6E2D4D2D2C2D0E94400405
:100C6000F801808311828F2D6E2D4D2D2C2D0E9429
:100C70004004F80182831382802F9B2D1F910F91D6
:100C8000FF90EF90DF90CF90BF9008950F931F9348
:100C9000CF93DF938C01EB01FB01EE0FFF1F22E0EE
:100CA00030E0CF01B8010E949609019741F02F5F13
:100CB0003F4FEC0FFD1F8FEF2F3F380791F7C90112
:100CC000DF91CF911F910F910895F82FE92F42E006
:100CD00050E062E070E016C04217530718F4241B7E
:100CE000350B02C0421B530B24173507A9F74130BF
:100CF000510571F0AB014F5F5F4F8FEF4F3F5807CA
:100D000029F0BA018F2F9E2F9C01EECF61E070E099
:100D1000CB01089508C06817790718F4861B970B54
:100D200002C0681B790B86179707A9F720E030E00F
:100D3000019711F421E030E0C90108959C0108C039
:100D40006217730718F4261B370B02C0621B730B64
:100D500026173707A9F7C90108958F929F92AF927E
:100D6000BF92DF92EF92FF920F931F93CF93DF9387
:100D7000D82EF62EC62FD0E0CE010E9429088C0175
:100D8000CE010E942908BC01F8015E01C8018C0F48
:100D90009D1F01C01192E817F907E1F781E08F1557
:100DA00008F06CC0F801D08292E0E92EF12C4B01E2
:100DB0008C0E9D1E5DC01192E815F905E1F7A0E0CB
:100DC000B0E0F801EA0FFB1F8081D89E900111244A
:100DD00021153105A9F1422F932F2223B9F08881E3
:100DE000282F30E0240F311DAD014F5F5F4FFE0112
:100DF0000AC02193332351F08081282F30E02F5FE8
:100E00003F4F4F5F5F4FE416F5069CF79923C1F003
:100E10008981282F30E0290F311DAD014E5F5F4FD2
:100E2000FE010BC021833196332351F08181282F9D
:100E300030E02F5F3F4F4F5F5F4FE416F50694F7AA
:100E400011962196AE15BF050CF4BBCF20E030E023
:100E5000F801E20FF31FDB01A20FB31F8C91808317
:100E60002F5F3F4F2A153B059CF30894E11CF11CB2
:100E7000AE14BF0464F0EB01FB019ECFF1E0FF165E
:100E800019F4F801D08203C081E0F8018083C80121
:100E9000DF91CF911F910F91FF90EF90DF90BF9066
:100EA000AF909F908F9008951F93182FCB010E94B1
:100EB00084090E947F09612F70E00E94AA091F9196
:100EC0000895DF93CF9300D000D00F92CDB7DEB757
:100ED000BC01DE011196E0E1F1E085E001900D92A8
:100EE0008150E1F785E00E945407FE01E80FF11DF3
:100EF00081810F900F900F900F900F90CF91DF9105
:100F00000895EF92FF920F931F93CF93DF938C017D
:100F10000E946107F82E0F5F1F4FC8010E946107F2
:100F2000F816C9F32F2D30E090E0829F7001839F67
:100F3000F00C929FF00C1124019721503040829FB9
:100F4000A001839F500D929F500D112482E090E0EC
:100F5000C2E0D0E014C08217930718F4281B390BA5
:100F600002C0821B930B28173907A9F7019759F084
:100F7000CE0101962FEF8F3F920719F0EC019A01F5
:100F8000F2CFC1E0D0E0CA01BE010E944606182F90
:100F9000092F86E090E00E942908FC01C083D183DC
:100FA00012830383E482F582DF91CF911F910F9129
:100FB000FF90EF900895EF92FF920F931F93CF93BE
:100FC000DF93082F162F7A01862F90E061E070E002
:100FD0000E940D08802F612F0E94AD06E12FF0E0E6
:100FE0003197EC01CE0FDF1F80E00CC0382F20E0DE
:100FF0008881A901480F511DCA01B7010E949609B5
:10100000319721975FEFEF3FF50781F7DF91CF91A0
:101010001F910F91FF90EF9008950F931F93CF931F
:10102000DF93689F8001699F100D789F100D112438
:10103000C8010E942908EC01009729F060E070E0E7
:10104000A8010E948F09CE01DF91CF911F910F91CE
:101050000895CF93DF93BC018230910510F462E0D4
:1010600070E0A0912201B0912301ED01E0E0F0E0F9
:1010700040E050E021C0888199818617970769F484
:101080008A819B81309719F09383828304C0909367
:10109000230180932201FE0134C06817790738F4D8
:1010A0004115510519F08417950708F4AC01FE01AC
:1010B0008A819B819C01E9012097E9F64115510540
:1010C000A9F1CA01861B970B049708F4BA01E0E066
:1010D000F0E02AC08D919C91119784179507F9F43F
:1010E0006417750781F412968D919C911397309730
:1010F00019F09383828304C090932301809322018B
:10110000FD0132964FC0CA01861B970BFD01E80F07
:10111000F91F6193719302978D939C9343C0FD01D6
:10112000828193819C01D9011097A1F680912001C1
:1011300090912101892B41F4809117019091180120
:1011400090932101809320014091190150911A013F
:101150004115510541F44DB75EB78091150190914D
:101160001601481B590B20912001309121012417B1
:101170003507B0F4CA01821B930B8617970780F0DE
:10118000AB014E5F5F4F8417950750F0420F531F1E
:101190005093210140932001F9016193719302C0A2
:1011A000E0E0F0E0CF01DF91CF910895CF93DF939E
:1011B000009709F450C0EC0122971B821A82A0917B
:1011C0002201B0912301109709F140E050E0AC17E3
:1011D000BD0708F1BB83AA83FE0121913191E20F83
:1011E000F31FAE17BF0779F48D919C911197280FCB
:1011F000391F2E5F3F4F3983288312968D919C9122
:1012000013979B838A834115510571F4D093230171
:10121000C093220120C012968D919C911397AD012D
:10122000009711F0DC01D3CFFA01D383C28321915F
:101230003191E20FF31FCE17DF0769F4888199819E
:10124000280F391F2E5F3F4FFA01318320838A8197
:101250009B8193838283DF91CF910895A0E0B0E0DA
:10126000E4E3F9E00C94FF09EC01A880B980CA809E
:10127000DB80A114B104C104D10441F484E2A82E9E
:1012800089EDB82E8BE5C82E87E0D82EC601B501B2
:101290002DE133EF41E050E00E94DC0927EA31E420
:1012A00040E050E00E94BD097B018C01C601B50100
:1012B0002DE133EF41E050E00E94DC09CA01B901A1
:1012C0002CEE34EF4FEF5FEF0E94BD096E0D7F1DD6
:1012D000801F911F97FF04C061507040804090486C
:1012E000688379838A839B839B013F77C901CDB74C
:1012F000DEB7EAE00C941B0A0E942E0908958BE1E8
:1013000091E00E942E090895A0E0B0E080931B01B7
:1013100090931C01A0931D01B0931E010895DC0160
:1013200001C06D9341505040E0F70895AA1BBB1BCC
:1013300051E107C0AA1FBB1FA617B70710F0A61BD5
:10134000B70B881F991F5A95A9F780959095BC01F6
:10135000CD01089597FB092E07260AD077FD04D00A
:10136000E5DF06D000201AF4709561957F4F08954F
:10137000F6F7909581959F4F0895629FD001739FD6
:10138000F001829FE00DF11D649FE00DF11D929F21
:10139000F00D839FF00D749FF00D659FF00D992760
:1013A000729FB00DE11DF91F639FB00DE11DF91F84
:1013B000BD01CF011124089597FB092E05260ED0FB
:1013C00057FD04D04BD00AD0001C38F450954095FE
:1013D000309521953F4F4F4F5F4F0895F6F7909509
:1013E0008095709561957F4F8F4F9F4F08952F92F5
:1013F0003F924F925F926F927F928F929F92AF92A5
:10140000BF92CF92DF92EF92FF920F931F93CF93F1
:10141000DF93CDB7DEB7CA1BDB0B0FB6F894DEBF88
:101420000FBECDBF09942A88398848885F846E84AE
:101430007D848C849B84AA84B984C884DF80EE80F8
:10144000FD800C811B81AA81B981CE0FD11D0FB601
:10145000F894DEBF0FBECDBFED010895A1E21A2EB4
:10146000AA1BBB1BFD010DC0AA1FBB1FEE1FFF1F48
:10147000A217B307E407F50720F0A21BB30BE40B98
:10148000F50B661F771F881F991F1A9469F76095DF
:101490007095809590959B01AC01BD01CF01089599
:0414A000F894FFCFEE
:1014A400FC60DAF266B6BEE0FEE6EE3E9C7A9E8E04
:1014B40005070B0D112000240100000100000000AD
:00000001FF
